{
  "contractName": "IdentityManager",
  "abi": [
    {
      "constant": true,
      "inputs": [],
      "name": "QE_hash",
      "outputs": [
        {
          "name": "",
          "type": "string"
        }
      ],
      "payable": false,
      "stateMutability": "view",
      "type": "function"
    },
    {
      "constant": true,
      "inputs": [],
      "name": "safeVersion",
      "outputs": [
        {
          "name": "",
          "type": "string"
        }
      ],
      "payable": false,
      "stateMutability": "view",
      "type": "function"
    },
    {
      "constant": true,
      "inputs": [],
      "name": "QI_hash",
      "outputs": [
        {
          "name": "",
          "type": "string"
        }
      ],
      "payable": false,
      "stateMutability": "view",
      "type": "function"
    },
    {
      "constant": true,
      "inputs": [],
      "name": "safeType",
      "outputs": [
        {
          "name": "",
          "type": "uint8"
        }
      ],
      "payable": false,
      "stateMutability": "view",
      "type": "function"
    },
    {
      "constant": true,
      "inputs": [],
      "name": "ageOfMajority",
      "outputs": [
        {
          "name": "",
          "type": "bool"
        }
      ],
      "payable": false,
      "stateMutability": "view",
      "type": "function"
    },
    {
      "constant": true,
      "inputs": [],
      "name": "identityLevel",
      "outputs": [
        {
          "name": "",
          "type": "uint8"
        }
      ],
      "payable": false,
      "stateMutability": "view",
      "type": "function"
    },
    {
      "anonymous": false,
      "inputs": [
        {
          "indexed": false,
          "name": "certifier",
          "type": "address"
        }
      ],
      "name": "CertifyIdentity",
      "type": "event"
    },
    {
      "constant": false,
      "inputs": [
        {
          "name": "_ageOfMajority",
          "type": "bool"
        }
      ],
      "name": "updateAgeOfMajority",
      "outputs": [],
      "payable": false,
      "stateMutability": "nonpayable",
      "type": "function"
    },
    {
      "constant": true,
      "inputs": [],
      "name": "getAgeOfMajority",
      "outputs": [
        {
          "name": "",
          "type": "bool"
        }
      ],
      "payable": false,
      "stateMutability": "view",
      "type": "function"
    }
  ],
  "bytecode": "0x60806040526040805190810160405280600381526020017f342e3000000000000000000000000000000000000000000000000000000000008152506003908051906020019061004f929190610062565b5034801561005c57600080fd5b50610107565b828054600181600116156101000203166002900490600052602060002090601f016020900481019282601f106100a357805160ff19168380011785556100d1565b828001600101855582156100d1579182015b828111156100d05782518255916020019190600101906100b5565b5b5090506100de91906100e2565b5090565b61010491905b808211156101005760008160009055506001016100e8565b5090565b90565b610641806101166000396000f30060806040526004361061008e576000357c0100000000000000000000000000000000000000000000000000000000900463ffffffff16806353030e17146100935780637ef2721f14610123578063a6e87074146101b3578063a9ec174214610243578063b0b2f15914610274578063b24ee04f146102a3578063ddc48a33146102d2578063f4ed93b414610301575b600080fd5b34801561009f57600080fd5b506100a8610332565b6040518080602001828103825283818151815260200191508051906020019080838360005b838110156100e85780820151818401526020810190506100cd565b50505050905090810190601f1680156101155780820380516001836020036101000a031916815260200191505b509250505060405180910390f35b34801561012f57600080fd5b506101386103d0565b6040518080602001828103825283818151815260200191508051906020019080838360005b8381101561017857808201518184015260208101905061015d565b50505050905090810190601f1680156101a55780820380516001836020036101000a031916815260200191505b509250505060405180910390f35b3480156101bf57600080fd5b506101c861046e565b6040518080602001828103825283818151815260200191508051906020019080838360005b838110156102085780820151818401526020810190506101ed565b50505050905090810190601f1680156102355780820380516001836020036101000a031916815260200191505b509250505060405180910390f35b34801561024f57600080fd5b5061025861050c565b604051808260ff1660ff16815260200191505060405180910390f35b34801561028057600080fd5b50610289610511565b604051808215151515815260200191505060405180910390f35b3480156102af57600080fd5b506102d0600480360381019080803515159060200190929190505050610524565b005b3480156102de57600080fd5b506102e76105eb565b604051808215151515815260200191505060405180910390f35b34801561030d57600080fd5b50610316610602565b604051808260ff1660ff16815260200191505060405180910390f35b60018054600181600116156101000203166002900480601f0160208091040260200160405190810160405280929190818152602001828054600181600116156101000203166002900480156103c85780601f1061039d576101008083540402835291602001916103c8565b820191906000526020600020905b8154815290600101906020018083116103ab57829003601f168201915b505050505081565b60038054600181600116156101000203166002900480601f0160208091040260200160405190810160405280929190818152602001828054600181600116156101000203166002900480156104665780601f1061043b57610100808354040283529160200191610466565b820191906000526020600020905b81548152906001019060200180831161044957829003601f168201915b505050505081565b60008054600181600116156101000203166002900480601f0160208091040260200160405190810160405280929190818152602001828054600181600116156101000203166002900480156105045780601f106104d957610100808354040283529160200191610504565b820191906000526020600020905b8154815290600101906020018083116104e757829003601f168201915b505050505081565b600181565b600260019054906101000a900460ff1681565b600460009054906101000a900460ff1615156105ce576040517f08c379a000000000000000000000000000000000000000000000000000000000815260040180806020018281038252602a8152602001807f54686973207361666520646f6573206e6f74206861766520612064656c61726581526020017f64206964656e746974790000000000000000000000000000000000000000000081525060400191505060405180910390fd5b80600260016101000a81548160ff02191690831515021790555050565b6000600260019054906101000a900460ff16905090565b600260009054906101000a900460ff16815600a165627a7a72305820c888ad8fb2c412861eb42f5257e6af0a319ea9b1bb061ce6d9e0fbf5373139830029",
  "source": "pragma solidity >=0.4.24;\n\n/// @title IdentityManager- A contract that handles identity certification for the QaxhModule\n/// @author Loup Federico & Mickael Proust\ncontract IdentityManager {\n    string public QI_hash;\n    string public QE_hash;\n    uint8 public identityLevel;\n    bool public ageOfMajority;\n    uint8 constant public safeType = 1;\n    string public safeVersion = \"4.0\";\n    bool internal alreadySetup;\n\n    function setupIdentity(string _QI_hash, string _QE_hash, uint8 _identityLevel, bool _ageOfMajority) internal checkIdentityLevel(_identityLevel) {\n        require(!alreadySetup, \"This safe already has a declared identity\");\n        QI_hash = _QI_hash;\n        QE_hash = _QE_hash;\n        identityLevel = _identityLevel;\n        ageOfMajority = _ageOfMajority;\n        alreadySetup = true;\n    }\n\n    function updateAgeOfMajority(bool _ageOfMajority) public{\n        require(alreadySetup, \"This safe does not have a delared identity\");\n        ageOfMajority = _ageOfMajority;\n    }\n\n    /// @dev Return the value of ageOfMajority\n    function getAgeOfMajority() public view returns (bool){\n        return ageOfMajority;\n    }\n\n    /// @dev Emits an event that proves the validation and approval of the identity contained\n    ///      in the contract by the sender of the transaction `tx.origin.\n    ///      N.B: This function must remain internal and all required precautions from the QaxhModule\n    ///      must be taken outside of it.\n    function certifyIdentity() internal {\n        emit CertifyIdentity(tx.origin);\n    }\n\n    // MODIFIERS\n\n    /// @dev Return true if the indicated identityLevel is valid.\n    modifier checkIdentityLevel(uint8 _identityLevel) {\n        //TODO Add identityLevel value check once it is clearly defined in the specs\n        _;\n    }\n\n    event CertifyIdentity(address certifier);\n}\n",
  "sourcePath": "/var/www/flask-prod/smart_contracts/safe-contracts/contracts/modules/qaxh/IdentityManager.sol",
  "compiler": {
    "name": "solc",
    "version": "0.4.24+commit.e67f0147.Emscripten.clang"
  },
  "schemaVersion": "2.0.0",
  "updatedAt": "2019-11-15T09:36:45.391Z"
}