{
  "contractName": "ModuleManager",
  "abi": [
    {
      "constant": true,
      "inputs": [],
      "name": "SENTINEL_MODULES",
      "outputs": [
        {
          "name": "",
          "type": "address"
        }
      ],
      "payable": false,
      "stateMutability": "view",
      "type": "function"
    },
    {
      "constant": true,
      "inputs": [],
      "name": "NAME",
      "outputs": [
        {
          "name": "",
          "type": "string"
        }
      ],
      "payable": false,
      "stateMutability": "view",
      "type": "function"
    },
    {
      "constant": true,
      "inputs": [],
      "name": "VERSION",
      "outputs": [
        {
          "name": "",
          "type": "string"
        }
      ],
      "payable": false,
      "stateMutability": "view",
      "type": "function"
    },
    {
      "payable": true,
      "stateMutability": "payable",
      "type": "fallback"
    },
    {
      "anonymous": false,
      "inputs": [
        {
          "indexed": false,
          "name": "newContract",
          "type": "address"
        }
      ],
      "name": "ContractCreation",
      "type": "event"
    },
    {
      "constant": false,
      "inputs": [
        {
          "name": "module",
          "type": "address"
        }
      ],
      "name": "enableModule",
      "outputs": [],
      "payable": false,
      "stateMutability": "nonpayable",
      "type": "function"
    },
    {
      "constant": false,
      "inputs": [
        {
          "name": "prevModule",
          "type": "address"
        },
        {
          "name": "module",
          "type": "address"
        }
      ],
      "name": "disableModule",
      "outputs": [],
      "payable": false,
      "stateMutability": "nonpayable",
      "type": "function"
    },
    {
      "constant": false,
      "inputs": [
        {
          "name": "to",
          "type": "address"
        },
        {
          "name": "value",
          "type": "uint256"
        },
        {
          "name": "data",
          "type": "bytes"
        },
        {
          "name": "operation",
          "type": "uint8"
        }
      ],
      "name": "execTransactionFromModule",
      "outputs": [
        {
          "name": "success",
          "type": "bool"
        }
      ],
      "payable": false,
      "stateMutability": "nonpayable",
      "type": "function"
    },
    {
      "constant": true,
      "inputs": [],
      "name": "getModules",
      "outputs": [
        {
          "name": "",
          "type": "address[]"
        }
      ],
      "payable": false,
      "stateMutability": "view",
      "type": "function"
    }
  ],
  "bytecode": "0x608060405234801561001057600080fd5b5061134f806100206000396000f300608060405260043610610083576000357c0100000000000000000000000000000000000000000000000000000000900463ffffffff168063468721a71461026f578063610b59251461032757806385e332cd1461036a578063a3f4df7e146103c1578063b2494df314610451578063e009cfde146104bd578063ffa1ad7414610520575b606060003073ffffffffffffffffffffffffffffffffffffffff1663b2494df36040518163ffffffff167c0100000000000000000000000000000000000000000000000000000000028152600401600060405180830381600087803b1580156100eb57600080fd5b505af11580156100ff573d6000803e3d6000fd5b505050506040513d6000823e3d601f19601f82011682018060405250602081101561012957600080fd5b81019080805164010000000081111561014157600080fd5b8281019050602081018481111561015757600080fd5b815185602082028301116401000000008211171561017457600080fd5b50509291905050509150600090505b815181101561026b57818181518110151561019a57fe5b9060200190602002015173ffffffffffffffffffffffffffffffffffffffff166332ece3a933346040518363ffffffff167c0100000000000000000000000000000000000000000000000000000000028152600401808373ffffffffffffffffffffffffffffffffffffffff1673ffffffffffffffffffffffffffffffffffffffff16815260200182815260200192505050600060405180830381600087803b15801561024657600080fd5b505af115801561025a573d6000803e3d6000fd5b505050508080600101915050610183565b5050005b34801561027b57600080fd5b5061030d600480360381019080803573ffffffffffffffffffffffffffffffffffffffff16906020019092919080359060200190929190803590602001908201803590602001908080601f0160208091040260200160405190810160405280939291908181526020018383808284378201915050505050509192919290803560ff1690602001909291905050506105b0565b604051808215151515815260200191505060405180910390f35b34801561033357600080fd5b50610368600480360381019080803573ffffffffffffffffffffffffffffffffffffffff1690602001909291905050506106db565b005b34801561037657600080fd5b5061037f610ab5565b604051808273ffffffffffffffffffffffffffffffffffffffff1673ffffffffffffffffffffffffffffffffffffffff16815260200191505060405180910390f35b3480156103cd57600080fd5b506103d6610aba565b6040518080602001828103825283818151815260200191508051906020019080838360005b838110156104165780820151818401526020810190506103fb565b50505050905090810190601f1680156104435780820380516001836020036101000a031916815260200191505b509250505060405180910390f35b34801561045d57600080fd5b50610466610af3565b6040518080602001828103825283818151815260200191508051906020019060200280838360005b838110156104a957808201518184015260208101905061048e565b505050509050019250505060405180910390f35b3480156104c957600080fd5b5061051e600480360381019080803573ffffffffffffffffffffffffffffffffffffffff169060200190929190803573ffffffffffffffffffffffffffffffffffffffff169060200190929190505050610d96565b005b34801561052c57600080fd5b506105356111ab565b6040518080602001828103825283818151815260200191508051906020019080838360005b8381101561057557808201518184015260208101905061055a565b50505050905090810190601f1680156105a25780820380516001836020036101000a031916815260200191505b509250505060405180910390f35b6000806000803373ffffffffffffffffffffffffffffffffffffffff1673ffffffffffffffffffffffffffffffffffffffff16815260200190815260200160002060009054906101000a900473ffffffffffffffffffffffffffffffffffffffff1673ffffffffffffffffffffffffffffffffffffffff16141515156106c4576040517f08c379a00000000000000000000000000000000000000000000000000000000081526004018080602001828103825260308152602001807f4d6574686f642063616e206f6e6c792062652063616c6c65642066726f6d206181526020017f6e20656e61626c6564206d6f64756c650000000000000000000000000000000081525060400191505060405180910390fd5b6106d1858585855a6111e4565b9050949350505050565b3073ffffffffffffffffffffffffffffffffffffffff163373ffffffffffffffffffffffffffffffffffffffff161415156107a4576040517f08c379a000000000000000000000000000000000000000000000000000000000815260040180806020018281038252602c8152602001807f4d6574686f642063616e206f6e6c792062652063616c6c65642066726f6d207481526020017f68697320636f6e7472616374000000000000000000000000000000000000000081525060400191505060405180910390fd5b60008173ffffffffffffffffffffffffffffffffffffffff16141580156107f85750600173ffffffffffffffffffffffffffffffffffffffff168173ffffffffffffffffffffffffffffffffffffffff1614155b151561086c576040517f08c379a000000000000000000000000000000000000000000000000000000000815260040180806020018281038252601f8152602001807f496e76616c6964206d6f64756c6520616464726573732070726f76696465640081525060200191505060405180910390fd5b60008060008373ffffffffffffffffffffffffffffffffffffffff1673ffffffffffffffffffffffffffffffffffffffff16815260200190815260200160002060009054906101000a900473ffffffffffffffffffffffffffffffffffffffff1673ffffffffffffffffffffffffffffffffffffffff16141515610958576040517f08c379a000000000000000000000000000000000000000000000000000000000815260040180806020018281038252601d8152602001807f4d6f64756c652068617320616c7265616479206265656e20616464656400000081525060200191505060405180910390fd5b600080600173ffffffffffffffffffffffffffffffffffffffff1673ffffffffffffffffffffffffffffffffffffffff16815260200190815260200160002060009054906101000a900473ffffffffffffffffffffffffffffffffffffffff166000808373ffffffffffffffffffffffffffffffffffffffff1673ffffffffffffffffffffffffffffffffffffffff16815260200190815260200160002060006101000a81548173ffffffffffffffffffffffffffffffffffffffff021916908373ffffffffffffffffffffffffffffffffffffffff16021790555080600080600173ffffffffffffffffffffffffffffffffffffffff1673ffffffffffffffffffffffffffffffffffffffff16815260200190815260200160002060006101000a81548173ffffffffffffffffffffffffffffffffffffffff021916908373ffffffffffffffffffffffffffffffffffffffff16021790555050565b600181565b6040805190810160405280600e81526020017f4d6f64756c65204d616e6167657200000000000000000000000000000000000081525081565b6060600080606060009250600080600173ffffffffffffffffffffffffffffffffffffffff1673ffffffffffffffffffffffffffffffffffffffff16815260200190815260200160002060009054906101000a900473ffffffffffffffffffffffffffffffffffffffff1691505b600173ffffffffffffffffffffffffffffffffffffffff168273ffffffffffffffffffffffffffffffffffffffff16141515610c05576000808373ffffffffffffffffffffffffffffffffffffffff1673ffffffffffffffffffffffffffffffffffffffff16815260200190815260200160002060009054906101000a900473ffffffffffffffffffffffffffffffffffffffff1691508280600101935050610b61565b82604051908082528060200260200182016040528015610c345781602001602082028038833980820191505090505b50905060009250600080600173ffffffffffffffffffffffffffffffffffffffff1673ffffffffffffffffffffffffffffffffffffffff16815260200190815260200160002060009054906101000a900473ffffffffffffffffffffffffffffffffffffffff1691505b600173ffffffffffffffffffffffffffffffffffffffff168273ffffffffffffffffffffffffffffffffffffffff16141515610d8d57818184815181101515610ce357fe5b9060200190602002019073ffffffffffffffffffffffffffffffffffffffff16908173ffffffffffffffffffffffffffffffffffffffff16815250506000808373ffffffffffffffffffffffffffffffffffffffff1673ffffffffffffffffffffffffffffffffffffffff16815260200190815260200160002060009054906101000a900473ffffffffffffffffffffffffffffffffffffffff1691508280600101935050610c9e565b80935050505090565b3073ffffffffffffffffffffffffffffffffffffffff163373ffffffffffffffffffffffffffffffffffffffff16141515610e5f576040517f08c379a000000000000000000000000000000000000000000000000000000000815260040180806020018281038252602c8152602001807f4d6574686f642063616e206f6e6c792062652063616c6c65642066726f6d207481526020017f68697320636f6e7472616374000000000000000000000000000000000000000081525060400191505060405180910390fd5b60008173ffffffffffffffffffffffffffffffffffffffff1614158015610eb35750600173ffffffffffffffffffffffffffffffffffffffff168173ffffffffffffffffffffffffffffffffffffffff1614155b1515610f27576040517f08c379a000000000000000000000000000000000000000000000000000000000815260040180806020018281038252601f8152602001807f496e76616c6964206d6f64756c6520616464726573732070726f76696465640081525060200191505060405180910390fd5b8073ffffffffffffffffffffffffffffffffffffffff166000808473ffffffffffffffffffffffffffffffffffffffff1673ffffffffffffffffffffffffffffffffffffffff16815260200190815260200160002060009054906101000a900473ffffffffffffffffffffffffffffffffffffffff1673ffffffffffffffffffffffffffffffffffffffff1614151561104e576040517f08c379a00000000000000000000000000000000000000000000000000000000081526004018080602001828103825260288152602001807f496e76616c696420707265764d6f64756c652c206d6f64756c6520706169722081526020017f70726f766964656400000000000000000000000000000000000000000000000081525060400191505060405180910390fd5b6000808273ffffffffffffffffffffffffffffffffffffffff1673ffffffffffffffffffffffffffffffffffffffff16815260200190815260200160002060009054906101000a900473ffffffffffffffffffffffffffffffffffffffff166000808473ffffffffffffffffffffffffffffffffffffffff1673ffffffffffffffffffffffffffffffffffffffff16815260200190815260200160002060006101000a81548173ffffffffffffffffffffffffffffffffffffffff021916908373ffffffffffffffffffffffffffffffffffffffff16021790555060008060008373ffffffffffffffffffffffffffffffffffffffff1673ffffffffffffffffffffffffffffffffffffffff16815260200190815260200160002060006101000a81548173ffffffffffffffffffffffffffffffffffffffff021916908373ffffffffffffffffffffffffffffffffffffffff1602179055505050565b6040805190810160405280600581526020017f302e302e3100000000000000000000000000000000000000000000000000000081525081565b600080600060028111156111f457fe5b84600281111561120057fe5b141561121957611212878787866112e1565b91506112d7565b6001600281111561122657fe5b84600281111561123257fe5b141561124a576112438786856112fa565b91506112d6565b61125385611311565b905060008173ffffffffffffffffffffffffffffffffffffffff16141591507f4db17dd5e4732fb6da34a148104a592783ca119a1e7bb8829eba6cbadef0b51181604051808273ffffffffffffffffffffffffffffffffffffffff1673ffffffffffffffffffffffffffffffffffffffff16815260200191505060405180910390a15b5b5095945050505050565b6000806000845160208601878987f19050949350505050565b60008060008451602086018786f490509392505050565b60008151602083016000f090509190505600a165627a7a72305820b1654a38374943c91466b948809d7d5b7794eab78fa1e7c8d0528cb85ae0422d0029",
  "source": "pragma solidity 0.4.24;\nimport \"./Enum.sol\";\nimport \"./Executor.sol\";\nimport \"./Module.sol\";\nimport \"./SelfAuthorized.sol\";\n//import \"./modules/qaxh/UserSafeExtension.sol\";\n\n/// @title Module Manager - A contract that manages modules that can execute transactions via this contract\n/// @author Stefan George - <stefan@gnosis.pm>\n/// @author Richard Meissner - <richard@gnosis.pm>\ncontract ModuleManager is SelfAuthorized, Executor /*, UserSafeExtension*/ {\n\n    string public constant NAME = \"Module Manager\";\n    string public constant VERSION = \"0.0.1\";\n    address public constant SENTINEL_MODULES = address(0x1);\n\n    mapping (address => address) internal modules;\n\n    /// @dev Added for the QaxhSafe modules so that it can treat Ether transactions.\n    function () external payable {\n        address[] memory array = this.getModules();\n        for (uint256 i = 0; i < array.length; i++){\n            Module(array[i]).handle(msg.sender, msg.value);\n        }\n    }\n    \n    function setupModules(address to, bytes data)\n        internal\n    {\n        require(modules[SENTINEL_MODULES] == 0, \"Modules have already been initialized\");\n        modules[SENTINEL_MODULES] = SENTINEL_MODULES;\n        if (to != 0)\n            // Setup has to complete successfully or transaction fails.\n            require(executeDelegateCall(to, data, gasleft()), \"Could not finish initialization\");\n    }\n\n    /// @dev Allows to add a module to the whitelist.\n    ///      This can only be done via a Safe transaction.\n    /// @param module Module to be whitelisted.\n    function enableModule(Module module)\n        public\n        authorized\n    {\n        // Module address cannot be null or sentinel.\n        require(address(module) != 0 && address(module) != SENTINEL_MODULES, \"Invalid module address provided\");\n        // Module cannot be added twice.\n        require(modules[module] == 0, \"Module has already been added\");\n        modules[module] = modules[SENTINEL_MODULES];\n        modules[SENTINEL_MODULES] = module;\n    }\n\n    /// @dev Allows to remove a module from the whitelist.\n    ///      This can only be done via a Safe transaction.\n    /// @param prevModule Module that pointed to the module to be removed in the linked list\n    /// @param module Module to be removed.\n    function disableModule(Module prevModule, Module module)\n        public\n        authorized\n    {\n        // Validate module address and check that it corresponds to module index.\n        require(address(module) != 0 && address(module) != SENTINEL_MODULES, \"Invalid module address provided\");\n        require(modules[prevModule] == address(module), \"Invalid prevModule, module pair provided\");\n        modules[prevModule] = modules[module];\n        modules[module] = 0;\n    }\n\n    /// @dev Allows a Module to execute a Safe transaction without any further confirmations.\n    /// @param to Destination address of module transaction.\n    /// @param value Ether value of module transaction.\n    /// @param data Data payload of module transaction.\n    /// @param operation Operation type of module transaction.\n    function execTransactionFromModule(address to, uint256 value, bytes data, Enum.Operation operation)\n        public\n        returns (bool success)\n    {\n        // Only whitelisted modules are allowed.\n        require(modules[msg.sender] != 0, \"Method can only be called from an enabled module\");\n        // Execute transaction without further confirmations.\n        success = execute(to, value, data, operation, gasleft());\n    }\n\n    /// @dev Returns array of modules.\n    /// @return Array of modules.\n    function getModules()\n        public\n        view\n        returns (address[])\n    {\n        // Calculate module count\n        uint256 moduleCount = 0;\n        address currentModule = modules[SENTINEL_MODULES];\n        while(currentModule != SENTINEL_MODULES) {\n            currentModule = modules[currentModule];\n            moduleCount ++;\n        }\n        address[] memory array = new address[](moduleCount);\n\n        // populate return array\n        moduleCount = 0;\n        currentModule = modules[SENTINEL_MODULES];\n        while(currentModule != SENTINEL_MODULES) {\n            array[moduleCount] = currentModule;\n            currentModule = modules[currentModule];\n            moduleCount ++;\n        }\n        return array;\n    }\n}\n",
  "sourcePath": "/var/www/flask-prod/smart_contracts/safe-contracts/contracts/ModuleManager.sol",
  "compiler": {
    "name": "solc",
    "version": "0.4.24+commit.e67f0147.Emscripten.clang"
  },
  "schemaVersion": "2.0.0",
  "updatedAt": "2019-11-15T09:36:45.410Z"
}