{
    "contractName": "QaxhModule",
    "abi": [
        {
            "constant": true,
            "inputs": [
                {
                    "name": "active",
                    "type": "bool"
                },
                {
                    "name": "frozen",
                    "type": "bool"
                }
            ],
            "name": "listKeys",
            "outputs": [
                {
                    "name": "keys",
                    "type": "address[10]"
                }
            ],
            "payable": false,
            "stateMutability": "view",
            "type": "function"
        },
        {
            "constant": true,
            "inputs": [
                {
                    "name": "_key",
                    "type": "address"
                }
            ],
            "name": "getLabel",
            "outputs": [
                {
                    "name": "",
                    "type": "string"
                }
            ],
            "payable": false,
            "stateMutability": "view",
            "type": "function"
        },
        {
            "constant": true,
            "inputs": [
                {
                    "name": "_key",
                    "type": "address"
                }
            ],
            "name": "isOwner",
            "outputs": [
                {
                    "name": "",
                    "type": "bool"
                }
            ],
            "payable": false,
            "stateMutability": "view",
            "type": "function"
        },
        {
            "constant": true,
            "inputs": [
                {
                    "name": "list",
                    "type": "address[10]"
                }
            ],
            "name": "listLength",
            "outputs": [
                {
                    "name": "length",
                    "type": "uint256"
                }
            ],
            "payable": false,
            "stateMutability": "pure",
            "type": "function"
        },
        {
            "constant": true,
            "inputs": [],
            "name": "manager",
            "outputs": [
                {
                    "name": "",
                    "type": "address"
                }
            ],
            "payable": false,
            "stateMutability": "view",
            "type": "function"
        },
        {
            "constant": true,
            "inputs": [
                {
                    "name": "_key",
                    "type": "address"
                }
            ],
            "name": "isNotAnOwner",
            "outputs": [
                {
                    "name": "",
                    "type": "bool"
                }
            ],
            "payable": false,
            "stateMutability": "view",
            "type": "function"
        },
        {
            "constant": true,
            "inputs": [],
            "name": "QE_hash",
            "outputs": [
                {
                    "name": "",
                    "type": "string"
                }
            ],
            "payable": false,
            "stateMutability": "view",
            "type": "function"
        },
        {
            "constant": false,
            "inputs": [
                {
                    "name": "_key",
                    "type": "address"
                }
            ],
            "name": "removeKey",
            "outputs": [],
            "payable": false,
            "stateMutability": "nonpayable",
            "type": "function"
        },
        {
            "constant": false,
            "inputs": [
                {
                    "name": "_masterCopy",
                    "type": "address"
                }
            ],
            "name": "changeMasterCopy",
            "outputs": [],
            "payable": false,
            "stateMutability": "nonpayable",
            "type": "function"
        },
        {
            "constant": true,
            "inputs": [],
            "name": "safeVersion",
            "outputs": [
                {
                    "name": "",
                    "type": "string"
                }
            ],
            "payable": false,
            "stateMutability": "view",
            "type": "function"
        },
        {
            "constant": false,
            "inputs": [
                {
                    "name": "_key",
                    "type": "address"
                }
            ],
            "name": "activateKey",
            "outputs": [],
            "payable": false,
            "stateMutability": "nonpayable",
            "type": "function"
        },
        {
            "constant": true,
            "inputs": [
                {
                    "name": "_key",
                    "type": "address"
                }
            ],
            "name": "isActive",
            "outputs": [
                {
                    "name": "",
                    "type": "bool"
                }
            ],
            "payable": false,
            "stateMutability": "view",
            "type": "function"
        },
        {
            "constant": true,
            "inputs": [],
            "name": "QI_hash",
            "outputs": [
                {
                    "name": "",
                    "type": "string"
                }
            ],
            "payable": false,
            "stateMutability": "view",
            "type": "function"
        },
        {
            "constant": true,
            "inputs": [],
            "name": "safeType",
            "outputs": [
                {
                    "name": "",
                    "type": "uint8"
                }
            ],
            "payable": false,
            "stateMutability": "view",
            "type": "function"
        },
        {
            "constant": true,
            "inputs": [],
            "name": "ageOfMajority",
            "outputs": [
                {
                    "name": "",
                    "type": "bool"
                }
            ],
            "payable": false,
            "stateMutability": "view",
            "type": "function"
        },
        {
            "constant": false,
            "inputs": [
                {
                    "name": "_ageOfMajority",
                    "type": "bool"
                }
            ],
            "name": "updateAgeOfMajority",
            "outputs": [],
            "payable": false,
            "stateMutability": "nonpayable",
            "type": "function"
        },
        {
            "constant": false,
            "inputs": [
                {
                    "name": "_qaxh",
                    "type": "address"
                },
                {
                    "name": "_qaxhMasterLedger",
                    "type": "address"
                }
            ],
            "name": "setupUtils",
            "outputs": [],
            "payable": false,
            "stateMutability": "nonpayable",
            "type": "function"
        },
        {
            "constant": false,
            "inputs": [
                {
                    "name": "_key",
                    "type": "address"
                }
            ],
            "name": "freezeKey",
            "outputs": [],
            "payable": false,
            "stateMutability": "nonpayable",
            "type": "function"
        },
        {
            "constant": true,
            "inputs": [],
            "name": "qaxh",
            "outputs": [
                {
                    "name": "",
                    "type": "address"
                }
            ],
            "payable": false,
            "stateMutability": "view",
            "type": "function"
        },
        {
            "constant": false,
            "inputs": [
                {
                    "name": "_key",
                    "type": "address"
                },
                {
                    "name": "label",
                    "type": "string"
                }
            ],
            "name": "setLabel",
            "outputs": [],
            "payable": false,
            "stateMutability": "nonpayable",
            "type": "function"
        },
        {
            "constant": true,
            "inputs": [],
            "name": "qaxhMasterLedger",
            "outputs": [
                {
                    "name": "",
                    "type": "address"
                }
            ],
            "payable": false,
            "stateMutability": "view",
            "type": "function"
        },
        {
            "constant": true,
            "inputs": [],
            "name": "getAgeOfMajority",
            "outputs": [
                {
                    "name": "",
                    "type": "bool"
                }
            ],
            "payable": false,
            "stateMutability": "view",
            "type": "function"
        },
        {
            "constant": true,
            "inputs": [
                {
                    "name": "_key",
                    "type": "address"
                }
            ],
            "name": "isFrozen",
            "outputs": [
                {
                    "name": "",
                    "type": "bool"
                }
            ],
            "payable": false,
            "stateMutability": "view",
            "type": "function"
        },
        {
            "constant": true,
            "inputs": [
                {
                    "name": "_key",
                    "type": "address"
                }
            ],
            "name": "isInKeyList",
            "outputs": [
                {
                    "name": "",
                    "type": "bool"
                }
            ],
            "payable": false,
            "stateMutability": "view",
            "type": "function"
        },
        {
            "constant": true,
            "inputs": [],
            "name": "identityLevel",
            "outputs": [
                {
                    "name": "",
                    "type": "uint8"
                }
            ],
            "payable": false,
            "stateMutability": "view",
            "type": "function"
        },
        {
            "anonymous": false,
            "inputs": [
                {
                    "indexed": false,
                    "name": "certifiedData",
                    "type": "string"
                }
            ],
            "name": "CertifyData",
            "type": "event"
        },
        {
            "anonymous": false,
            "inputs": [
                {
                    "indexed": false,
                    "name": "certifier",
                    "type": "address"
                }
            ],
            "name": "CertifyIdentity",
            "type": "event"
        },
        {
            "constant": false,
            "inputs": [
                {
                    "name": "_qaxh",
                    "type": "address"
                },
                {
                    "name": "_ledger",
                    "type": "address"
                }
            ],
            "name": "setup",
            "outputs": [],
            "payable": false,
            "stateMutability": "nonpayable",
            "type": "function"
        },
        {
            "constant": false,
            "inputs": [
                {
                    "name": "_QI_hash",
                    "type": "string"
                },
                {
                    "name": "_QE_hash",
                    "type": "string"
                },
                {
                    "name": "_identityLevel",
                    "type": "uint8"
                },
                {
                    "name": "_ageOfMajority",
                    "type": "bool"
                }
            ],
            "name": "callSetupIdentity",
            "outputs": [],
            "payable": false,
            "stateMutability": "nonpayable",
            "type": "function"
        },
        {
            "constant": false,
            "inputs": [
                {
                    "name": "_ageOfMajority",
                    "type": "bool"
                }
            ],
            "name": "callUpdateAgeOfMajority",
            "outputs": [],
            "payable": false,
            "stateMutability": "nonpayable",
            "type": "function"
        },
        {
            "constant": false,
            "inputs": [],
            "name": "acceptIdentity",
            "outputs": [],
            "payable": false,
            "stateMutability": "nonpayable",
            "type": "function"
        },
        {
            "constant": false,
            "inputs": [
                {
                    "name": "sender",
                    "type": "address"
                },
                {
                    "name": "value",
                    "type": "uint256"
                }
            ],
            "name": "handle",
            "outputs": [],
            "payable": false,
            "stateMutability": "nonpayable",
            "type": "function"
        },
        {
            "constant": false,
            "inputs": [
                {
                    "name": "to",
                    "type": "address"
                },
                {
                    "name": "amount",
                    "type": "uint256"
                },
                {
                    "name": "data",
                    "type": "bytes"
                },
                {
                    "name": "token",
                    "type": "address"
                }
            ],
            "name": "sendFromSafe",
            "outputs": [
                {
                    "name": "",
                    "type": "bool"
                }
            ],
            "payable": false,
            "stateMutability": "nonpayable",
            "type": "function"
        },
        {
            "constant": false,
            "inputs": [
                {
                    "name": "data",
                    "type": "string"
                }
            ],
            "name": "certifyData",
            "outputs": [],
            "payable": false,
            "stateMutability": "nonpayable",
            "type": "function"
        },
        {
            "constant": false,
            "inputs": [
                {
                    "name": "_corporateSafe_address",
                    "type": "address"
                }
            ],
            "name": "acceptKey",
            "outputs": [],
            "payable": false,
            "stateMutability": "nonpayable",
            "type": "function"
        }
    ],
    "bytecode": "0x60806040526040805190810160405280600381526020017f342e300000000000000000000000000000000000000000000000000000000000815250600a90805190602001906200005192919062000066565b503480156200005f57600080fd5b5062000115565b828054600181600116156101000203166002900490600052602060002090601f016020900481019282601f10620000a957805160ff1916838001178555620000da565b82800160010185558215620000da579182015b82811115620000d9578251825591602001919060010190620000bc565b5b509050620000e99190620000ed565b5090565b6200011291905b808211156200010e576000816000905550600101620000f4565b5090565b90565b61444380620001256000396000f3006080604052600436106101a1576000357c0100000000000000000000000000000000000000000000000000000000900463ffffffff168063202b7c9f146101a657806328a249b01461021d5780632d34ba79146102d95780632f54bf6e1461033c57806332ece3a9146103975780633b13f8d6146103e45780633dc805701461044b578063481c6a75146104b45780634a1438e91461050b5780634d8492b41461054e57806353030e17146105a957806354a945e1146106395780636614a9b31461070157806369e78499146107cc5780637785908a1461080f5780637de7edef1461083e5780637ef2721f14610881578063860f1b31146109115780639172fe08146109285780639f8a13d71461096b578063a6e87074146109c6578063a9ec174214610a56578063b0b2f15914610a87578063b24ee04f14610ab6578063bd1480a314610ae5578063bd5cbe4a14610b48578063ca906b8714610b8b578063d18232d914610be2578063d475ada914610c6b578063ddc48a3314610cc2578063e583983614610cf1578063e687e5a714610d4c578063f4ed93b414610da7575b600080fd5b3480156101b257600080fd5b506101df600480360381019080803515159060200190929190803515159060200190929190505050610dd8565b6040518082600a60200280838360005b8381101561020a5780820151818401526020810190506101ef565b5050505090500191505060405180910390f35b34801561022957600080fd5b5061025e600480360381019080803573ffffffffffffffffffffffffffffffffffffffff16906020019092919050505061103c565b6040518080602001828103825283818151815260200191508051906020019080838360005b8381101561029e578082015181840152602081019050610283565b50505050905090810190601f1680156102cb5780820380516001836020036101000a031916815260200191505b509250505060405180910390f35b3480156102e557600080fd5b5061033a600480360381019080803573ffffffffffffffffffffffffffffffffffffffff169060200190929190803573ffffffffffffffffffffffffffffffffffffffff16906020019092919050505061111d565b005b34801561034857600080fd5b5061037d600480360381019080803573ffffffffffffffffffffffffffffffffffffffff16906020019092919050505061121f565b604051808215151515815260200191505060405180910390f35b3480156103a357600080fd5b506103e2600480360381019080803573ffffffffffffffffffffffffffffffffffffffff16906020019092919080359060200190929190505050611241565b005b3480156103f057600080fd5b50610435600480360381019080806101400190600a806020026040519081016040528092919082600a6020028082843782019150505050509192919290505050611544565b6040518082815260200191505060405180910390f35b34801561045757600080fd5b506104b2600480360381019080803590602001908201803590602001908080601f01602080910402602001604051908101604052809392919081815260200183838082843782019150505050505091929192905050506115b3565b005b3480156104c057600080fd5b506104c9611833565b604051808273ffffffffffffffffffffffffffffffffffffffff1673ffffffffffffffffffffffffffffffffffffffff16815260200191505060405180910390f35b34801561051757600080fd5b5061054c600480360381019080803573ffffffffffffffffffffffffffffffffffffffff169060200190929190505050611859565b005b34801561055a57600080fd5b5061058f600480360381019080803573ffffffffffffffffffffffffffffffffffffffff169060200190929190505050611a16565b604051808215151515815260200191505060405180910390f35b3480156105b557600080fd5b506105be611a84565b6040518080602001828103825283818151815260200191508051906020019080838360005b838110156105fe5780820151818401526020810190506105e3565b50505050905090810190601f16801561062b5780820380516001836020036101000a031916815260200191505b509250505060405180910390f35b34801561064557600080fd5b506106ff600480360381019080803590602001908201803590602001908080601f0160208091040260200160405190810160405280939291908181526020018383808284378201915050505050509192919290803590602001908201803590602001908080601f0160208091040260200160405190810160405280939291908181526020018383808284378201915050505050509192919290803560ff169060200190929190803515159060200190929190505050611b22565b005b34801561070d57600080fd5b506107b2600480360381019080803573ffffffffffffffffffffffffffffffffffffffff16906020019092919080359060200190929190803590602001908201803590602001908080601f0160208091040260200160405190810160405280939291908181526020018383808284378201915050505050509192919290803573ffffffffffffffffffffffffffffffffffffffff169060200190929190505050611c1f565b604051808215151515815260200191505060405180910390f35b3480156107d857600080fd5b5061080d600480360381019080803573ffffffffffffffffffffffffffffffffffffffff1690602001909291905050506121bf565b005b34801561081b57600080fd5b5061083c6004803603810190808035151590602001909291905050506128ad565b005b34801561084a57600080fd5b5061087f600480360381019080803573ffffffffffffffffffffffffffffffffffffffff1690602001909291905050506129a4565b005b34801561088d57600080fd5b50610896612b87565b6040518080602001828103825283818151815260200191508051906020019080838360005b838110156108d65780820151818401526020810190506108bb565b50505050905090810190601f1680156109035780820380516001836020036101000a031916815260200191505b509250505060405180910390f35b34801561091d57600080fd5b50610926612c25565b005b34801561093457600080fd5b50610969600480360381019080803573ffffffffffffffffffffffffffffffffffffffff169060200190929190505050612e10565b005b34801561097757600080fd5b506109ac600480360381019080803573ffffffffffffffffffffffffffffffffffffffff169060200190929190505050613581565b604051808215151515815260200191505060405180910390f35b3480156109d257600080fd5b506109db6135ef565b6040518080602001828103825283818151815260200191508051906020019080838360005b83811015610a1b578082015181840152602081019050610a00565b50505050905090810190601f168015610a485780820380516001836020036101000a031916815260200191505b509250505060405180910390f35b348015610a6257600080fd5b50610a6b61368d565b604051808260ff1660ff16815260200191505060405180910390f35b348015610a9357600080fd5b50610a9c613692565b604051808215151515815260200191505060405180910390f35b348015610ac257600080fd5b50610ae36004803603810190808035151590602001909291905050506136a5565b005b348015610af157600080fd5b50610b46600480360381019080803573ffffffffffffffffffffffffffffffffffffffff169060200190929190803573ffffffffffffffffffffffffffffffffffffffff16906020019092919050505061376c565b005b348015610b5457600080fd5b50610b89600480360381019080803573ffffffffffffffffffffffffffffffffffffffff1690602001909291905050506138de565b005b348015610b9757600080fd5b50610ba0613bfd565b604051808273ffffffffffffffffffffffffffffffffffffffff1673ffffffffffffffffffffffffffffffffffffffff16815260200191505060405180910390f35b348015610bee57600080fd5b50610c69600480360381019080803573ffffffffffffffffffffffffffffffffffffffff169060200190929190803590602001908201803590602001908080601f0160208091040260200160405190810160405280939291908181526020018383808284378201915050505050509192919290505050613c23565b005b348015610c7757600080fd5b50610c80613e80565b604051808273ffffffffffffffffffffffffffffffffffffffff1673ffffffffffffffffffffffffffffffffffffffff16815260200191505060405180910390f35b348015610cce57600080fd5b50610cd7613ea6565b604051808215151515815260200191505060405180910390f35b348015610cfd57600080fd5b50610d32600480360381019080803573ffffffffffffffffffffffffffffffffffffffff169060200190929190505050613ebd565b604051808215151515815260200191505060405180910390f35b348015610d5857600080fd5b50610d8d600480360381019080803573ffffffffffffffffffffffffffffffffffffffff169060200190929190505050613f2c565b604051808215151515815260200191505060405180910390f35b348015610db357600080fd5b50610dbc614040565b604051808260ff1660ff16815260200191505060405180910390f35b610de061434e565b60008060066000600173ffffffffffffffffffffffffffffffffffffffff1673ffffffffffffffffffffffffffffffffffffffff16815260200190815260200160002060009054906101000a900473ffffffffffffffffffffffffffffffffffffffff1690505b600073ffffffffffffffffffffffffffffffffffffffff168173ffffffffffffffffffffffffffffffffffffffff1614158015610e8a5750600a60ff168260ff16105b156110315760016002811115610e9c57fe5b600460008373ffffffffffffffffffffffffffffffffffffffff1673ffffffffffffffffffffffffffffffffffffffff16815260200190815260200160002060009054906101000a900460ff166002811115610ef457fe5b148015610efe5750835b80610f735750600280811115610f1057fe5b600460008373ffffffffffffffffffffffffffffffffffffffff1673ffffffffffffffffffffffffffffffffffffffff16815260200190815260200160002060009054906101000a900460ff166002811115610f6857fe5b148015610f725750845b5b15610fca5780838360ff16600a81101515610f8a57fe5b602002019073ffffffffffffffffffffffffffffffffffffffff16908173ffffffffffffffffffffffffffffffffffffffff168152505081806001019250505b600660008273ffffffffffffffffffffffffffffffffffffffff1673ffffffffffffffffffffffffffffffffffffffff16815260200190815260200160002060009054906101000a900473ffffffffffffffffffffffffffffffffffffffff169050610e47565b829250505092915050565b6060600560008373ffffffffffffffffffffffffffffffffffffffff1673ffffffffffffffffffffffffffffffffffffffff1681526020019081526020016000208054600181600116156101000203166002900480601f0160208091040260200160405190810160405280929190818152602001828054600181600116156101000203166002900480156111115780601f106110e657610100808354040283529160200191611111565b820191906000526020600020905b8154815290600101906020018083116110f457829003601f168201915b50505050509050919050565b600073ffffffffffffffffffffffffffffffffffffffff16600260009054906101000a900473ffffffffffffffffffffffffffffffffffffffff1673ffffffffffffffffffffffffffffffffffffffff16141515611209576040517f08c379a000000000000000000000000000000000000000000000000000000000815260040180806020018281038252602a8152602001807f516178684d6f64756c652e736574757028292063616e206f6e6c79206265206381526020017f616c6c6564206f6e63650000000000000000000000000000000000000000000081525060400191505060405180910390fd5b611213828261376c565b61121b614053565b5050565b600061122a82613581565b8061123a575061123982613ebd565b5b9050919050565b60008114151561154057600160009054906101000a900473ffffffffffffffffffffffffffffffffffffffff1673ffffffffffffffffffffffffffffffffffffffff163373ffffffffffffffffffffffffffffffffffffffff16141515611336576040517f08c379a00000000000000000000000000000000000000000000000000000000081526004018080602001828103825260288152602001807f4f6e6c7920746865204d616e616765722063616e206f72646572207472616e7381526020017f616374696f6e732e00000000000000000000000000000000000000000000000081525060400191505060405180910390fd5b61133f82613581565b8061134e575064012a05f20081105b8061144d5750600360009054906101000a900473ffffffffffffffffffffffffffffffffffffffff1673ffffffffffffffffffffffffffffffffffffffff1663138550b9836040518263ffffffff167c0100000000000000000000000000000000000000000000000000000000028152600401808273ffffffffffffffffffffffffffffffffffffffff1673ffffffffffffffffffffffffffffffffffffffff168152602001915050602060405180830381600087803b15801561141157600080fd5b505af1158015611425573d6000803e3d6000fd5b505050506040513d602081101561143b57600080fd5b81019080805190602001909291905050505b806114a55750600260009054906101000a900473ffffffffffffffffffffffffffffffffffffffff1673ffffffffffffffffffffffffffffffffffffffff168273ffffffffffffffffffffffffffffffffffffffff16145b151561153f576040517f08c379a00000000000000000000000000000000000000000000000000000000081526004018080602001828103825260308152602001807f5468652073656e646572206973206e6f7420617574686f72697a656420746f2081526020017f646f2074686174206465706f7369742e0000000000000000000000000000000081525060400191505060405180910390fd5b5b5050565b60008090505b600a60ff168110801561159c5750600073ffffffffffffffffffffffffffffffffffffffff168282600a8110151561157e57fe5b602002015173ffffffffffffffffffffffffffffffffffffffff1614155b156115ae57808060010191505061154a565b919050565b60008060005a90506002808111156115c757fe5b600460003273ffffffffffffffffffffffffffffffffffffffff1673ffffffffffffffffffffffffffffffffffffffff16815260200190815260200160002060009054906101000a900460ff16600281111561161f57fe5b1480611696575082801561169557506001600281111561163b57fe5b600460003273ffffffffffffffffffffffffffffffffffffffff1673ffffffffffffffffffffffffffffffffffffffff16815260200190815260200160002060009054906101000a900460ff16600281111561169357fe5b145b5b806116f757508180156116f65750600260009054906101000a900473ffffffffffffffffffffffffffffffffffffffff1673ffffffffffffffffffffffffffffffffffffffff163273ffffffffffffffffffffffffffffffffffffffff16145b5b1515611791576040517f08c379a00000000000000000000000000000000000000000000000000000000081526004018080602001828103825260378152602001807f54686973206d6574686f642063616e206f6e6c792062652063616c6c6564206281526020017f7920746865206f776e6572206f6620746865207361666500000000000000000081525060400191505060405180910390fd5b7f0a6463648bde5f2761e81d531edcff9c3d2dc51bd4987e6b58b542b72dc4f612846040518080602001828103825283818151815260200191508051906020019080838360005b838110156117f35780820151818401526020810190506117d8565b50505050905090810190601f1680156118205780820380516001836020036101000a031916815260200191505b509250505060405180910390a150505050565b600160009054906101000a900473ffffffffffffffffffffffffffffffffffffffff1681565b60008173ffffffffffffffffffffffffffffffffffffffff1630604051602401808273ffffffffffffffffffffffffffffffffffffffff1673ffffffffffffffffffffffffffffffffffffffff1681526020019150506040516020818303038152906040527f1f41f21f000000000000000000000000000000000000000000000000000000007bffffffffffffffffffffffffffffffffffffffffffffffffffffffff19166020820180517bffffffffffffffffffffffffffffffffffffffffffffffffffffffff838183161783525050505060405180828051906020019080838360005b8381101561195957808201518184015260208101905061193e565b50505050905090810190601f1680156119865780820380516001836020036101000a031916815260200191505b509150506000604051808303816000865af19150509050801515611a12576040517f08c379a00000000000000000000000000000000000000000000000000000000081526004018080602001828103825260208152602001807f43616c6c20746f2061636365707455736572536166654b6579206661696c656481525060200191505060405180910390fd5b5050565b6000806002811115611a2457fe5b600460008473ffffffffffffffffffffffffffffffffffffffff1673ffffffffffffffffffffffffffffffffffffffff16815260200190815260200160002060009054906101000a900460ff166002811115611a7c57fe5b149050919050565b60088054600181600116156101000203166002900480601f016020809104026020016040519081016040528092919081815260200182805460018160011615610100020316600290048015611b1a5780601f10611aef57610100808354040283529160200191611b1a565b820191906000526020600020905b815481529060010190602001808311611afd57829003601f168201915b505050505081565b600260009054906101000a900473ffffffffffffffffffffffffffffffffffffffff1673ffffffffffffffffffffffffffffffffffffffff163373ffffffffffffffffffffffffffffffffffffffff16141515611c0d576040517f08c379a00000000000000000000000000000000000000000000000000000000081526004018080602001828103825260328152602001807f54686973206d6574686f642063616e206f6e6c792062652063616c6c6564206281526020017f792074686520716178682061646472657373000000000000000000000000000081525060400191505060405180910390fd5b611c1984848484614146565b50505050565b60006060611c2c32613581565b1515611cc6576040517f08c379a00000000000000000000000000000000000000000000000000000000081526004018080602001828103825260368152602001807f4f6e6c7920616374697665206b6579732061726520616c6c6f77656420746f2081526020017f73656e642045746865727320616e6420746f6b656e730000000000000000000081525060400191505060405180910390fd5b600073ffffffffffffffffffffffffffffffffffffffff168373ffffffffffffffffffffffffffffffffffffffff161415611ef857600160009054906101000a900473ffffffffffffffffffffffffffffffffffffffff1673ffffffffffffffffffffffffffffffffffffffff1663468721a787878760006040518563ffffffff167c0100000000000000000000000000000000000000000000000000000000028152600401808573ffffffffffffffffffffffffffffffffffffffff1673ffffffffffffffffffffffffffffffffffffffff16815260200184815260200180602001836002811115611db557fe5b60ff168152602001828103825284818151815260200191508051906020019080838360005b83811015611df5578082015181840152602081019050611dda565b50505050905090810190601f168015611e225780820380516001836020036101000a031916815260200191505b5095505050505050602060405180830381600087803b158015611e4457600080fd5b505af1158015611e58573d6000803e3d6000fd5b505050506040513d6020811015611e6e57600080fd5b81019080805190602001909291905050501515611ef3576040517f08c379a000000000000000000000000000000000000000000000000000000000815260040180806020018281038252601f8152602001807f436f756c64206e6f742073656e64204574686572732066726f6d20736166650081525060200191505060405180910390fd5b6121b6565b8585604051602401808373ffffffffffffffffffffffffffffffffffffffff1673ffffffffffffffffffffffffffffffffffffffff168152602001828152602001925050506040516020818303038152906040527fa9059cbb000000000000000000000000000000000000000000000000000000007bffffffffffffffffffffffffffffffffffffffffffffffffffffffff19166020820180517bffffffffffffffffffffffffffffffffffffffffffffffffffffffff83818316178352505050509050600160009054906101000a900473ffffffffffffffffffffffffffffffffffffffff1673ffffffffffffffffffffffffffffffffffffffff1663468721a78460008460006040518563ffffffff167c0100000000000000000000000000000000000000000000000000000000028152600401808573ffffffffffffffffffffffffffffffffffffffff1673ffffffffffffffffffffffffffffffffffffffff1681526020018481526020018060200183600281111561207757fe5b60ff168152602001828103825284818151815260200191508051906020019080838360005b838110156120b757808201518184015260208101905061209c565b50505050905090810190601f1680156120e45780820380516001836020036101000a031916815260200191505b5095505050505050602060405180830381600087803b15801561210657600080fd5b505af115801561211a573d6000803e3d6000fd5b505050506040513d602081101561213057600080fd5b810190808051906020019092919050505015156121b5576040517f08c379a000000000000000000000000000000000000000000000000000000000815260040180806020018281038252601f8152602001807f436f756c64206e6f742073656e6420746f6b656e732066726f6d20736166650081525060200191505060405180910390fd5b5b50949350505050565b600080600160005a90506002808111156121d557fe5b600460003273ffffffffffffffffffffffffffffffffffffffff1673ffffffffffffffffffffffffffffffffffffffff16815260200190815260200160002060009054906101000a900460ff16600281111561222d57fe5b14806122a457508280156122a357506001600281111561224957fe5b600460003273ffffffffffffffffffffffffffffffffffffffff1673ffffffffffffffffffffffffffffffffffffffff16815260200190815260200160002060009054906101000a900460ff1660028111156122a157fe5b145b5b8061230557508180156123045750600260009054906101000a900473ffffffffffffffffffffffffffffffffffffffff1673ffffffffffffffffffffffffffffffffffffffff163273ffffffffffffffffffffffffffffffffffffffff16145b5b151561239f576040517f08c379a00000000000000000000000000000000000000000000000000000000081526004018080602001828103825260378152602001807f54686973206d6574686f642063616e206f6e6c792062652063616c6c6564206281526020017f7920746865206f776e6572206f6620746865207361666500000000000000000081525060400191505060405180910390fd5b600060028111156123ac57fe5b600460008773ffffffffffffffffffffffffffffffffffffffff1673ffffffffffffffffffffffffffffffffffffffff16815260200190815260200160002060009054906101000a900460ff16600281111561240457fe5b141515156124a0576040517f08c379a00000000000000000000000000000000000000000000000000000000081526004018080602001828103825260218152602001807f546865207361666520646f65736e277420636f6e7461696e2074686973206b6581526020017f790000000000000000000000000000000000000000000000000000000000000081525060400191505060405180910390fd5b600193505b8473ffffffffffffffffffffffffffffffffffffffff16600660008673ffffffffffffffffffffffffffffffffffffffff1673ffffffffffffffffffffffffffffffffffffffff16815260200190815260200160002060009054906101000a900473ffffffffffffffffffffffffffffffffffffffff1673ffffffffffffffffffffffffffffffffffffffff161415156125a057600660008573ffffffffffffffffffffffffffffffffffffffff1673ffffffffffffffffffffffffffffffffffffffff16815260200190815260200160002060009054906101000a900473ffffffffffffffffffffffffffffffffffffffff1693506124a5565b600660008673ffffffffffffffffffffffffffffffffffffffff1673ffffffffffffffffffffffffffffffffffffffff16815260200190815260200160002060009054906101000a900473ffffffffffffffffffffffffffffffffffffffff16600660008673ffffffffffffffffffffffffffffffffffffffff1673ffffffffffffffffffffffffffffffffffffffff16815260200190815260200160002060006101000a81548173ffffffffffffffffffffffffffffffffffffffff021916908373ffffffffffffffffffffffffffffffffffffffff1602179055506000600660008773ffffffffffffffffffffffffffffffffffffffff1673ffffffffffffffffffffffffffffffffffffffff16815260200190815260200160002060006101000a81548173ffffffffffffffffffffffffffffffffffffffff021916908373ffffffffffffffffffffffffffffffffffffffff1602179055506000600460008773ffffffffffffffffffffffffffffffffffffffff1673ffffffffffffffffffffffffffffffffffffffff16815260200190815260200160002060006101000a81548160ff0219169083600281111561275857fe5b02179055506020604051908101604052806000815250600560008773ffffffffffffffffffffffffffffffffffffffff1673ffffffffffffffffffffffffffffffffffffffff16815260200190815260200160002090805190602001906127c0929190614372565b50600015153073ffffffffffffffffffffffffffffffffffffffff1663e687e5a7876040518263ffffffff167c0100000000000000000000000000000000000000000000000000000000028152600401808273ffffffffffffffffffffffffffffffffffffffff1673ffffffffffffffffffffffffffffffffffffffff168152602001915050602060405180830381600087803b15801561286057600080fd5b505af1158015612874573d6000803e3d6000fd5b505050506040513d602081101561288a57600080fd5b810190808051906020019092919050505015151415156128a657fe5b5050505050565b600260009054906101000a900473ffffffffffffffffffffffffffffffffffffffff1673ffffffffffffffffffffffffffffffffffffffff163373ffffffffffffffffffffffffffffffffffffffff16141515612998576040517f08c379a00000000000000000000000000000000000000000000000000000000081526004018080602001828103825260328152602001807f54686973206d6574686f642063616e206f6e6c792062652063616c6c6564206281526020017f792074686520716178682061646472657373000000000000000000000000000081525060400191505060405180910390fd5b6129a1816136a5565b50565b600160009054906101000a900473ffffffffffffffffffffffffffffffffffffffff1673ffffffffffffffffffffffffffffffffffffffff163373ffffffffffffffffffffffffffffffffffffffff16141515612a8f576040517f08c379a00000000000000000000000000000000000000000000000000000000081526004018080602001828103825260268152602001807f4d6574686f642063616e206f6e6c792062652063616c6c65642066726f6d206d81526020017f616e61676572000000000000000000000000000000000000000000000000000081525060400191505060405180910390fd5b60008173ffffffffffffffffffffffffffffffffffffffff1614151515612b44576040517f08c379a00000000000000000000000000000000000000000000000000000000081526004018080602001828103825260248152602001807f496e76616c6964206d617374657220636f707920616464726573732070726f7681526020017f696465640000000000000000000000000000000000000000000000000000000081525060400191505060405180910390fd5b806000806101000a81548173ffffffffffffffffffffffffffffffffffffffff021916908373ffffffffffffffffffffffffffffffffffffffff16021790555050565b600a8054600181600116156101000203166002900480601f016020809104026020016040519081016040528092919081815260200182805460018160011615610100020316600290048015612c1d5780601f10612bf257610100808354040283529160200191612c1d565b820191906000526020600020905b815481529060010190602001808311612c0057829003601f168201915b505050505081565b60008060005a9050600280811115612c3957fe5b600460003273ffffffffffffffffffffffffffffffffffffffff1673ffffffffffffffffffffffffffffffffffffffff16815260200190815260200160002060009054906101000a900460ff166002811115612c9157fe5b1480612d085750828015612d07575060016002811115612cad57fe5b600460003273ffffffffffffffffffffffffffffffffffffffff1673ffffffffffffffffffffffffffffffffffffffff16815260200190815260200160002060009054906101000a900460ff166002811115612d0557fe5b145b5b80612d695750818015612d685750600260009054906101000a900473ffffffffffffffffffffffffffffffffffffffff1673ffffffffffffffffffffffffffffffffffffffff163273ffffffffffffffffffffffffffffffffffffffff16145b5b1515612e03576040517f08c379a00000000000000000000000000000000000000000000000000000000081526004018080602001828103825260378152602001807f54686973206d6574686f642063616e206f6e6c792062652063616c6c6564206281526020017f7920746865206f776e6572206f6620746865207361666500000000000000000081525060400191505060405180910390fd5b612e0b614277565b505050565b60018060005a9050600280811115612e2457fe5b600460003273ffffffffffffffffffffffffffffffffffffffff1673ffffffffffffffffffffffffffffffffffffffff16815260200190815260200160002060009054906101000a900460ff166002811115612e7c57fe5b1480612ef35750828015612ef2575060016002811115612e9857fe5b600460003273ffffffffffffffffffffffffffffffffffffffff1673ffffffffffffffffffffffffffffffffffffffff16815260200190815260200160002060009054906101000a900460ff166002811115612ef057fe5b145b5b80612f545750818015612f535750600260009054906101000a900473ffffffffffffffffffffffffffffffffffffffff1673ffffffffffffffffffffffffffffffffffffffff163273ffffffffffffffffffffffffffffffffffffffff16145b5b1515612fee576040517f08c379a00000000000000000000000000000000000000000000000000000000081526004018080602001828103825260378152602001807f54686973206d6574686f642063616e206f6e6c792062652063616c6c6564206281526020017f7920746865206f776e6572206f6620746865207361666500000000000000000081525060400191505060405180910390fd5b612ff7846142dc565b151561306b576040517f08c379a000000000000000000000000000000000000000000000000000000000815260040180806020018281038252600b8152602001807f496e76616c6964206b657900000000000000000000000000000000000000000081525060200191505060405180910390fd5b60028081111561307757fe5b600460003373ffffffffffffffffffffffffffffffffffffffff1673ffffffffffffffffffffffffffffffffffffffff16815260200190815260200160002060009054906101000a900460ff1660028111156130cf57fe5b14806131745750600160028111156130e357fe5b600460008673ffffffffffffffffffffffffffffffffffffffff1673ffffffffffffffffffffffffffffffffffffffff16815260200190815260200160002060009054906101000a900460ff16600281111561313b57fe5b14801561317357508373ffffffffffffffffffffffffffffffffffffffff163373ffffffffffffffffffffffffffffffffffffffff16145b5b806131cc5750600260009054906101000a900473ffffffffffffffffffffffffffffffffffffffff1673ffffffffffffffffffffffffffffffffffffffff163373ffffffffffffffffffffffffffffffffffffffff16145b1515613266576040517f08c379a00000000000000000000000000000000000000000000000000000000081526004018080602001828103825260278152602001807f456d6974746572206e6f7420616c6c6f77656420746f2061637469766174652081526020017f746865206b65790000000000000000000000000000000000000000000000000081525060400191505060405180910390fd5b6000600281111561327357fe5b600460008673ffffffffffffffffffffffffffffffffffffffff1673ffffffffffffffffffffffffffffffffffffffff16815260200190815260200160002060009054906101000a900460ff1660028111156132cb57fe5b141561351a57600260009054906101000a900473ffffffffffffffffffffffffffffffffffffffff1673ffffffffffffffffffffffffffffffffffffffff163373ffffffffffffffffffffffffffffffffffffffff161415156133bc576040517f08c379a00000000000000000000000000000000000000000000000000000000081526004018080602001828103825260278152602001807f4f6e6c7920516178682063616e206164642061206e6577206b657920746f207481526020017f686520736166650000000000000000000000000000000000000000000000000081525060400191505060405180910390fd5b60066000600173ffffffffffffffffffffffffffffffffffffffff1673ffffffffffffffffffffffffffffffffffffffff16815260200190815260200160002060009054906101000a900473ffffffffffffffffffffffffffffffffffffffff16600660008673ffffffffffffffffffffffffffffffffffffffff1673ffffffffffffffffffffffffffffffffffffffff16815260200190815260200160002060006101000a81548173ffffffffffffffffffffffffffffffffffffffff021916908373ffffffffffffffffffffffffffffffffffffffff1602179055508360066000600173ffffffffffffffffffffffffffffffffffffffff1673ffffffffffffffffffffffffffffffffffffffff16815260200190815260200160002060006101000a81548173ffffffffffffffffffffffffffffffffffffffff021916908373ffffffffffffffffffffffffffffffffffffffff1602179055505b6002600460008673ffffffffffffffffffffffffffffffffffffffff1673ffffffffffffffffffffffffffffffffffffffff16815260200190815260200160002060006101000a81548160ff0219169083600281111561357657fe5b021790555050505050565b600060028081111561358f57fe5b600460008473ffffffffffffffffffffffffffffffffffffffff1673ffffffffffffffffffffffffffffffffffffffff16815260200190815260200160002060009054906101000a900460ff1660028111156135e757fe5b149050919050565b60078054600181600116156101000203166002900480601f0160208091040260200160405190810160405280929190818152602001828054600181600116156101000203166002900480156136855780601f1061365a57610100808354040283529160200191613685565b820191906000526020600020905b81548152906001019060200180831161366857829003601f168201915b505050505081565b600181565b600960019054906101000a900460ff1681565b600b60009054906101000a900460ff16151561374f576040517f08c379a000000000000000000000000000000000000000000000000000000000815260040180806020018281038252602a8152602001807f54686973207361666520646f6573206e6f74206861766520612064656c61726581526020017f64206964656e746974790000000000000000000000000000000000000000000081525060400191505060405180910390fd5b80600960016101000a81548160ff02191690831515021790555050565b600073ffffffffffffffffffffffffffffffffffffffff16600260009054906101000a900473ffffffffffffffffffffffffffffffffffffffff1673ffffffffffffffffffffffffffffffffffffffff16141515613858576040517f08c379a00000000000000000000000000000000000000000000000000000000081526004018080602001828103825260268152602001807f51617868207574696c732073657475702063616e206f6e6c7920626520646f6e81526020017f65206f6e6365000000000000000000000000000000000000000000000000000081525060400191505060405180910390fd5b81600260006101000a81548173ffffffffffffffffffffffffffffffffffffffff021916908373ffffffffffffffffffffffffffffffffffffffff16021790555080600360006101000a81548173ffffffffffffffffffffffffffffffffffffffff021916908373ffffffffffffffffffffffffffffffffffffffff1602179055505050565b6000600160005a90506002808111156138f357fe5b600460003273ffffffffffffffffffffffffffffffffffffffff1673ffffffffffffffffffffffffffffffffffffffff16815260200190815260200160002060009054906101000a900460ff16600281111561394b57fe5b14806139c257508280156139c157506001600281111561396757fe5b600460003273ffffffffffffffffffffffffffffffffffffffff1673ffffffffffffffffffffffffffffffffffffffff16815260200190815260200160002060009054906101000a900460ff1660028111156139bf57fe5b145b5b80613a235750818015613a225750600260009054906101000a900473ffffffffffffffffffffffffffffffffffffffff1673ffffffffffffffffffffffffffffffffffffffff163273ffffffffffffffffffffffffffffffffffffffff16145b5b1515613abd576040517f08c379a00000000000000000000000000000000000000000000000000000000081526004018080602001828103825260378152602001807f54686973206d6574686f642063616e206f6e6c792062652063616c6c6564206281526020017f7920746865206f776e6572206f6620746865207361666500000000000000000081525060400191505060405180910390fd5b600280811115613ac957fe5b600460008673ffffffffffffffffffffffffffffffffffffffff1673ffffffffffffffffffffffffffffffffffffffff16815260200190815260200160002060009054906101000a900460ff166002811115613b2157fe5b141515613b96576040517f08c379a00000000000000000000000000000000000000000000000000000000081526004018080602001828103825260168152602001807f54686973206b6579206973206e6f74206163746976650000000000000000000081525060200191505060405180910390fd5b6001600460008673ffffffffffffffffffffffffffffffffffffffff1673ffffffffffffffffffffffffffffffffffffffff16815260200190815260200160002060006101000a81548160ff02191690836002811115613bf257fe5b021790555050505050565b600260009054906101000a900473ffffffffffffffffffffffffffffffffffffffff1681565b60008060005a9050600280811115613c3757fe5b600460003273ffffffffffffffffffffffffffffffffffffffff1673ffffffffffffffffffffffffffffffffffffffff16815260200190815260200160002060009054906101000a900460ff166002811115613c8f57fe5b1480613d065750828015613d05575060016002811115613cab57fe5b600460003273ffffffffffffffffffffffffffffffffffffffff1673ffffffffffffffffffffffffffffffffffffffff16815260200190815260200160002060009054906101000a900460ff166002811115613d0357fe5b145b5b80613d675750818015613d665750600260009054906101000a900473ffffffffffffffffffffffffffffffffffffffff1673ffffffffffffffffffffffffffffffffffffffff163273ffffffffffffffffffffffffffffffffffffffff16145b5b1515613e01576040517f08c379a00000000000000000000000000000000000000000000000000000000081526004018080602001828103825260378152602001807f54686973206d6574686f642063616e206f6e6c792062652063616c6c6564206281526020017f7920746865206f776e6572206f6620746865207361666500000000000000000081525060400191505060405180910390fd5b613e0a85613581565b80613e1a5750613e1985613ebd565b5b1515613e2557600080fd5b83600560008773ffffffffffffffffffffffffffffffffffffffff1673ffffffffffffffffffffffffffffffffffffffff1681526020019081526020016000209080519060200190613e78929190614372565b505050505050565b600360009054906101000a900473ffffffffffffffffffffffffffffffffffffffff1681565b6000600960019054906101000a900460ff16905090565b600060016002811115613ecc57fe5b600460008473ffffffffffffffffffffffffffffffffffffffff1673ffffffffffffffffffffffffffffffffffffffff16815260200190815260200160002060009054906101000a900460ff166002811115613f2457fe5b149050919050565b600080600190505b8273ffffffffffffffffffffffffffffffffffffffff168173ffffffffffffffffffffffffffffffffffffffff1614158015613f9d5750600073ffffffffffffffffffffffffffffffffffffffff168173ffffffffffffffffffffffffffffffffffffffff1614155b1561400957600660008273ffffffffffffffffffffffffffffffffffffffff1673ffffffffffffffffffffffffffffffffffffffff16815260200190815260200160002060009054906101000a900473ffffffffffffffffffffffffffffffffffffffff169050613f34565b8273ffffffffffffffffffffffffffffffffffffffff168173ffffffffffffffffffffffffffffffffffffffff1614915050919050565b600960009054906101000a900460ff1681565b6000600160009054906101000a900473ffffffffffffffffffffffffffffffffffffffff1673ffffffffffffffffffffffffffffffffffffffff16141515614103576040517f08c379a000000000000000000000000000000000000000000000000000000000815260040180806020018281038252601c8152602001807f4d616e616765722068617320616c7265616479206265656e207365740000000081525060200191505060405180910390fd5b33600160006101000a81548173ffffffffffffffffffffffffffffffffffffffff021916908373ffffffffffffffffffffffffffffffffffffffff160217905550565b81600b60009054906101000a900460ff161515156141f2576040517f08c379a00000000000000000000000000000000000000000000000000000000081526004018080602001828103825260298152602001807f54686973207361666520616c7265616479206861732061206465636c6172656481526020017f206964656e74697479000000000000000000000000000000000000000000000081525060400191505060405180910390fd5b8460079080519060200190614208929190614372565b50836008908051906020019061421f929190614372565b5082600960006101000a81548160ff021916908360ff16021790555081600960016101000a81548160ff0219169083151502179055506001600b60006101000a81548160ff0219169083151502179055505050505050565b7f39a66884e6cbfc966afb6a9aa1a79fa1d97c93c4220ffcc8a0dc8255c0fc6c9432604051808273ffffffffffffffffffffffffffffffffffffffff1673ffffffffffffffffffffffffffffffffffffffff16815260200191505060405180910390a1565b60008073ffffffffffffffffffffffffffffffffffffffff168273ffffffffffffffffffffffffffffffffffffffff16141580156143475750600173ffffffffffffffffffffffffffffffffffffffff168273ffffffffffffffffffffffffffffffffffffffff1614155b9050919050565b61014060405190810160405280600a90602082028038833980820191505090505090565b828054600181600116156101000203166002900490600052602060002090601f016020900481019282601f106143b357805160ff19168380011785556143e1565b828001600101855582156143e1579182015b828111156143e05782518255916020019190600101906143c5565b5b5090506143ee91906143f2565b5090565b61441491905b808211156144105760008160009055506001016143f8565b5090565b905600a165627a7a72305820ad22a94f20a19de497557c14e306e2239457b3dda63444316e1813f3c33268ae0029",
    "source": "pragma solidity 0.4.24;\nimport \"../../Module.sol\";\nimport \"./IdentityManager.sol\";\nimport \"./KeyManager.sol\";\nimport \"./QaxhUtils.sol\";\n\n/// @title QaxhModule - A contract that allows its associated Gnosis Safe to be Qaxh compliant if owned by the Qaxh address.\n/// @author Clmence Gardelle\n/// @author Loup Federico\ncontract QaxhModule is Module, KeyManager, IdentityManager {\n\n    uint256 constant internal smallTransactionThreshold = 5000000000;\n\n    /// @dev Setup qaxh and QaxhMasterLedger addresses references upon module creation.\n    ///      this function must be called in the same transaction that creates the Gnosis\n    ///      safe with CreateAndAddModules for security purposes.\n    function setup(address _qaxh, address _ledger) public {\n        require(qaxh == address(0), \"QaxhModule.setup() can only be called once\");\n        setupUtils(_qaxh, _ledger);\n        setManager();\n        //TODO Add setupIdentity call once the definitive identity fields are accepted\n    }\n\n    /// @dev Setup the QaxhModule identity if tx.origin has the appropriate rights.\n    function callSetupIdentity(string _QI_hash, string _QE_hash, uint8 _identityLevel,bool _ageOfMajority) public filterQaxh {\n        setupIdentity(_QI_hash, _QE_hash, _identityLevel, _ageOfMajority);\n    }\n\n    ///@dev Update the age of Majority if tx.origin has the appropriate rights.\n    function callUpdateAgeOfMajority(bool _ageOfMajority) public filterQaxh {\n        updateAgeOfMajority(_ageOfMajority);\n    }\n\n    // AUTHENTICATION PROCESS\n\n    /// @dev If all conditions are met, emit the countersignature event containing the Qaxh client's public key.\n    ///      Only an active key can accept the safe identity.\n    function acceptIdentity() public filterAndRefundOwner(false, false) {\n        certifyIdentity();\n    }\n\n    // SENDING AND RECEIVING ETHERS AND TOKENS\n\n    /// @dev Handle Ether received by the safe. The contract execution will revert if it wasn't\n    ///      called by its ModuleManager or if the transaction is not authorized, i.e. It is not\n    ///      coming from either the owner of the safe, another Qaxh safe or the Qaxh address and\n    ///      its amount exceeds the little transactions threshold.\n    /// @param sender The address sending Ether to the safe. Not to be confused with msg.sender().\n    /// @param value The amount of Ether sent to the safe.\n    function handle(address sender, uint256 value) public {\n        if (value != 0) {\n            require(msg.sender == address(manager), \"Only the Manager can order transactions.\");\n            require(\n                isActive(sender) || value < smallTransactionThreshold || QaxhMasterLedger(qaxhMasterLedger).qaxhSafe(sender) || sender == qaxh,\n                \"The sender is not authorized to do that deposit.\"\n            );\n        }\n    }\n\n    // KEY MANAGEMENT\n\n    /// @dev Ask the GnosisSafe to send Ether or ERC20 tokens and revert on failure.\n    /// @param to The receiver address.\n    /// @param amount The amount of the transaction in Weis.\n    /// @param token If set to 0, it is an Ether transaction, else it is a token transaction.\n    /// @param data Ignored in case of token transaction. Else, the data field of the transaction.\n    function sendFromSafe(address to, uint256 amount, bytes data, address token) public returns (bool) {\n        require(isActive(tx.origin), \"Only active keys are allowed to send Ethers and tokens\");\n        if (token == address(0))\n            require(manager.execTransactionFromModule(to, amount, data, Enum.Operation.Call),\n                   \"Could not send Ethers from safe\");\n        else {\n            bytes memory token_transaction = abi.encodeWithSignature(\"transfer(address,uint256)\", to, amount);\n            require(manager.execTransactionFromModule(token, 0, token_transaction, Enum.Operation.Call),\n                   \"Could not send tokens from safe\");\n        }\n    }\n\n    // DATA CERTIFICATION\n\n    /// @dev Emit an event certifying data.\n    /// @param data Data to be certified. Example : transaction D1, hash of an image, etc.\n    function certifyData(string data) public filterAndRefundOwner(false, false) {\n        emit CertifyData(data);\n    }\n\n    function acceptKey(address _corporateSafe_address) public {\n\tbool success = _corporateSafe_address.call(\n\t\tabi.encodeWithSignature(\"acceptUserSafeKey(address)\",\n\t\t\t\t\taddress(this)));\n\trequire(success, \"Call to acceptUserSafeKey failed\");\n    }\n\n    event CertifyData(string certifiedData);\n}\n",
    "sourcePath": "/var/www/flask-prod/smart_contracts/safe-contracts/contracts/modules/qaxh/QaxhModule.sol",
    "compiler": {
        "name": "solc",
        "version": "0.4.24+commit.e67f0147.Emscripten.clang"
    },
    "schemaVersion": "2.0.0",
    "updatedAt": "2019-11-15T09:36:45.420Z"
}